:020000040000FA
:10000000926A936A946A956A966AC26A0F0EC16E82
:10001000070EB46E030E926E000E936E11D0F92689
:100020003F0C060C5B0C4F0C660C6D0C7D0C070C2A
:10003000FF0C6F0C770C7C0C390C5E0C790C710C7E
:1000400080500008D8A401D00FD080500108D8A457
:1000500001D019D080500208D8A401D023D08050FC
:100060000308D8A4EDD738D00F6A0F500FEC00F07A
:10007000816E60EC00F00F501208D8A401D0E0D7D8
:100080000F2A0F2AF2D70F6A0F500FEC00F0816E83
:1000900060EC00F00F500E08D8A401D0D1D70F2A81
:1000A0000F2AF2D71E0E0F6E0F500FEC00F0816E6C
:1000B00060EC00F00F6601D0C3D70F060F06F4D72F
:1000C000F20E106E0000102E01D01200F20E116E12
:0E00D0000000112EFDD7F6D73F0E816EB1D77E
:0200DE00000020
:020000040030CA
:0100000020DF
:0100010008F6
:0100020038C5
:010003001EDE
:010005008179
:010006008178
:010008000FE8
:010009008076
:01000A000FE6
:01000B00A054
:01000C000FE4
:01000D0040B2
:00000001FF
